{
  "contractName": "owned",
  "abi": [
    {
      "constant": true,
      "inputs": [],
      "name": "owner",
      "outputs": [
        {
          "name": "",
          "type": "address"
        }
      ],
      "payable": false,
      "stateMutability": "view",
      "type": "function"
    },
    {
      "inputs": [],
      "payable": false,
      "stateMutability": "nonpayable",
      "type": "constructor"
    },
    {
      "constant": false,
      "inputs": [
        {
          "name": "newOwner",
          "type": "address"
        }
      ],
      "name": "transferOwnership",
      "outputs": [],
      "payable": false,
      "stateMutability": "nonpayable",
      "type": "function"
    }
  ],
  "bytecode": "0x6060604052341561000f57600080fd5b336000806101000a81548173ffffffffffffffffffffffffffffffffffffffff021916908373ffffffffffffffffffffffffffffffffffffffff1602179055506101ce8061005e6000396000f30060606040526004361061004c576000357c0100000000000000000000000000000000000000000000000000000000900463ffffffff1680638da5cb5b14610051578063f2fde38b146100a6575b600080fd5b341561005c57600080fd5b6100646100df565b604051808273ffffffffffffffffffffffffffffffffffffffff1673ffffffffffffffffffffffffffffffffffffffff16815260200191505060405180910390f35b34156100b157600080fd5b6100dd600480803573ffffffffffffffffffffffffffffffffffffffff16906020019091905050610104565b005b6000809054906101000a900473ffffffffffffffffffffffffffffffffffffffff1681565b6000809054906101000a900473ffffffffffffffffffffffffffffffffffffffff1673ffffffffffffffffffffffffffffffffffffffff163373ffffffffffffffffffffffffffffffffffffffff1614151561015f57600080fd5b806000806101000a81548173ffffffffffffffffffffffffffffffffffffffff021916908373ffffffffffffffffffffffffffffffffffffffff160217905550505600a165627a7a72305820433d96add8b012880441ebc1fd76691349ec69b40e2bb844900d7aef2099e9760029",
  "source": "pragma solidity ^0.4.17;\n\ncontract owned {\n    address public owner;\n    \n    modifier onlyOwner {\n        require(msg.sender == owner);\n        _;\n    }\n\n    function owned() public {\n        owner = msg.sender;\n    }\n\n    function transferOwnership(address newOwner) onlyOwner external {\n        owner = newOwner;\n    }\n}\n\n\ncontract Object {\n    address public objectManager;\n    address public owner;\n    bytes32 public identifier;\n\n    function Object(address _owner, bytes32 _identifier) public {\n        objectManager = msg.sender;\n        owner = _owner;\n        identifier = _identifier;\n    }\n\n    function transferOwnership(address newOwner) external {\n        require(msg.sender == objectManager);\n        require(tx.origin == owner);\n\n        owner = newOwner;\n    }\n}\n\n\ncontract ObjectManager is owned {\n    mapping (address => bool) public verifiers;\n\n    mapping (address => mapping (uint => bytes32)) public objectOwners;\n    mapping (address => uint) public objectOwnersIndex;\n    mapping (bytes32 => Object) public objects;\n\n    modifier onlyVerifier() {\n        require(verifiers[msg.sender]);\n        _;\n    }\n\n    event VerifierAdded(address indexed verifier);\n    event VerifierRemoved(address indexed verifier);\n    event ObjectCreated(address indexed verifier, address indexed owner, bytes32 identifier, address object);\n    event ObjectTransferred(bytes32 indexed object, address indexed from, address indexed to);\n\n    function ObjectManager() public {\n        verifiers[msg.sender] = true;\n    }\n\n    function addVerifier(address _verifier) external onlyOwner {\n        verifiers[_verifier] = true;\n\n        VerifierAdded(_verifier);\n    }\n\n    function removeVerifier(address _verifier) external onlyOwner {\n        verifiers[_verifier] = false;\n\n        VerifierRemoved(_verifier);\n    }\n\n    function registerObject(bytes32 _identifier, address _owner) external onlyVerifier {\n        require(objects[_identifier] == address(0));\n\n        Object object = new Object(_owner, _identifier);\n\n        objectOwners[_owner][objectOwnersIndex[_owner]] = _identifier;\n        objectOwnersIndex[_owner]++;\n        objects[_identifier] = object;\n\n        ObjectCreated(msg.sender, _owner, _identifier, object);\n    }\n\n    function transferObject(bytes32 _identifier, address _newOwner) external {\n        require(objects[_identifier] != address(0));\n\n        Object object = objects[_identifier];\n\n        require(object.owner() == msg.sender);\n        require(object.objectManager() == address(this));\n\n        object.transferOwnership(_newOwner);\n\n        ObjectTransferred(_identifier, msg.sender, _newOwner);\n\n        // update object registry\n        // assign new owner\n        objectOwners[_newOwner][objectOwnersIndex[_newOwner]] = _identifier;\n        objectOwnersIndex[_newOwner]++;\n\n        // remove old owner\n        for (uint i = 0; i < objectOwnersIndex[msg.sender]; i++) {\n            if (objectOwners[msg.sender][i] == _identifier) {\n                objectOwners[msg.sender][i] = objectOwners[msg.sender][objectOwnersIndex[msg.sender] - 1];\n                delete objectOwners[msg.sender][objectOwnersIndex[msg.sender] - 1];\n                objectOwnersIndex[msg.sender]--;\n                break;\n            }\n        }\n    }\n}\n",
  "sourcePath": "/Users/ninja/Documents/EDF/expe/blockchain/supplychaindemo/imports/lib/truffle/contracts/ObjectManager.sol",
  "compiler": {
    "name": "solc",
    "version": "0.4.19+commit.c4cbbb05.Emscripten.clang"
  },
  "schemaVersion": "1.0.1",
  "updatedAt": "2018-02-19T15:27:26.182Z"
}